{
  "contractName": "LandRegistry",
  "abi": [
    {
      "anonymous": false,
      "inputs": [
        {
          "indexed": false,
          "internalType": "uint256",
          "name": "id",
          "type": "uint256"
        },
        {
          "indexed": false,
          "internalType": "string",
          "name": "name",
          "type": "string"
        },
        {
          "indexed": false,
          "internalType": "uint256",
          "name": "size",
          "type": "uint256"
        },
        {
          "indexed": false,
          "internalType": "address",
          "name": "owner",
          "type": "address"
        }
      ],
      "name": "LandAdded",
      "type": "event"
    },
    {
      "inputs": [],
      "name": "landCount",
      "outputs": [
        {
          "internalType": "uint256",
          "name": "",
          "type": "uint256"
        }
      ],
      "stateMutability": "view",
      "type": "function"
    },
    {
      "inputs": [
        {
          "internalType": "uint256",
          "name": "",
          "type": "uint256"
        }
      ],
      "name": "lands",
      "outputs": [
        {
          "internalType": "uint256",
          "name": "id",
          "type": "uint256"
        },
        {
          "internalType": "string",
          "name": "name",
          "type": "string"
        },
        {
          "internalType": "uint256",
          "name": "size",
          "type": "uint256"
        },
        {
          "internalType": "address",
          "name": "owner",
          "type": "address"
        }
      ],
      "stateMutability": "view",
      "type": "function"
    },
    {
      "inputs": [
        {
          "internalType": "string",
          "name": "_name",
          "type": "string"
        },
        {
          "internalType": "uint256",
          "name": "_size",
          "type": "uint256"
        }
      ],
      "name": "addLand",
      "outputs": [],
      "stateMutability": "nonpayable",
      "type": "function"
    },
    {
      "inputs": [
        {
          "internalType": "uint256",
          "name": "_id",
          "type": "uint256"
        }
      ],
      "name": "getLand",
      "outputs": [
        {
          "internalType": "uint256",
          "name": "",
          "type": "uint256"
        },
        {
          "internalType": "string",
          "name": "",
          "type": "string"
        },
        {
          "internalType": "uint256",
          "name": "",
          "type": "uint256"
        },
        {
          "internalType": "address",
          "name": "",
          "type": "address"
        }
      ],
      "stateMutability": "view",
      "type": "function"
    },
    {
      "inputs": [],
      "name": "getLandCount",
      "outputs": [
        {
          "internalType": "uint256",
          "name": "",
          "type": "uint256"
        }
      ],
      "stateMutability": "view",
      "type": "function"
    }
  ],
  "bytecode": "0x608060405234801561001057600080fd5b506105fe806100206000396000f3fe608060405234801561001057600080fd5b50600436106100575760003560e01c80635ceaa7691461005c578063d7bce6581461007a578063e261f1e514610082578063e6ed0fff146100a5578063f02dd53f146100ba575b600080fd5b6100646100cd565b60405161007191906104d5565b60405180910390f35b6100646100d3565b6100956100903660046104b0565b6100d9565b60405161007194939291906104de565b6100b86100b3366004610409565b610194565b005b6100956100c83660046104b0565b61026c565b60015490565b60015481565b600060208190529081526040902080546001820180549192916100fb90610550565b80601f016020809104026020016040519081016040528092919081815260200182805461012790610550565b80156101745780601f1061014957610100808354040283529160200191610174565b820191906000526020600020905b81548152906001019060200180831161015757829003601f168201915b5050505060028301546003909301549192916001600160a01b0316905084565b600180549060006101a48361058b565b90915550506040805160808101825260018054808352602080840187815284860187905233606086015260009283528282529490912083518155935180519394936101f6938501929190910190610370565b506040828101516002830155606090920151600390910180546001600160a01b0319166001600160a01b0390921691909117905560015490517febb36392e9c355083df16c5de8fa08ebb8f9b40f097267a51b6e132969fb15a291610260918590859033906104de565b60405180910390a15050565b600060606000806000806000878152602001908152602001600020604051806080016040529081600082015481526020016001820180546102ac90610550565b80601f01602080910402602001604051908101604052809291908181526020018280546102d890610550565b80156103255780601f106102fa57610100808354040283529160200191610325565b820191906000526020600020905b81548152906001019060200180831161030857829003601f168201915b505050918352505060028201546020808301919091526003909201546001600160a01b0316604091820152825191830151908301516060909301519199909850919650945092505050565b82805461037c90610550565b90600052602060002090601f01602090048101928261039e57600085556103e4565b82601f106103b757805160ff19168380011785556103e4565b828001600101855582156103e4579182015b828111156103e45782518255916020019190600101906103c9565b506103f09291506103f4565b5090565b5b808211156103f057600081556001016103f5565b6000806040838503121561041b578182fd5b823567ffffffffffffffff80821115610432578384fd5b818501915085601f830112610445578384fd5b8135602082821115610459576104596105b2565b604051601f8301601f191681018201848111828210171561047c5761047c6105b2565b6040528281528483018201891015610492578687fd5b82828601838301379182018101959095529694909301359450505050565b6000602082840312156104c1578081fd5b5035919050565b6001600160a01b03169052565b90815260200190565b600085825260206080818401528551806080850152825b818110156105115787810183015185820160a0015282016104f5565b81811115610522578360a083870101525b5060408401869052601f01601f1916830160a0019150610547905060608301846104c8565b95945050505050565b60028104600182168061056457607f821691505b6020821081141561058557634e487b7160e01b600052602260045260246000fd5b50919050565b60006000198214156105ab57634e487b7160e01b81526011600452602481fd5b5060010190565b634e487b7160e01b600052604160045260246000fdfea26469706673582212203ea6e15acd569e3652a0fd7ddb782d7ede0185a6186568729b899f85f8b1e7df64736f6c63430008000033",
  "immutableReferences": {},
  "source": "// SPDX-License-Identifier: MIT\r\npragma solidity ^0.8.0;\r\n\r\ncontract LandRegistry {\r\n    struct Land {\r\n        uint id;\r\n        string name;\r\n        uint size; // Added land size\r\n        address owner;\r\n    }\r\n\r\n    mapping(uint => Land) public lands;\r\n    uint public landCount;\r\n\r\n    event LandAdded(uint id, string name, uint size, address owner);\r\n\r\n    function addLand(string memory _name, uint _size) public {\r\n        landCount++;\r\n        lands[landCount] = Land(landCount, _name, _size, msg.sender);\r\n        emit LandAdded(landCount, _name, _size, msg.sender);\r\n    }\r\n\r\n    function getLand(uint _id) public view returns (uint, string memory, uint, address) {\r\n        Land memory land = lands[_id];\r\n        return (land.id, land.name, land.size, land.owner);\r\n    }\r\n\r\n    function getLandCount() public view returns (uint) {\r\n        return landCount;\r\n    }\r\n}\r\n",
  "sourcePath": "D:\\land-registry\\contracts\\LandRegistry.sol",
  "compiler": {
    "name": "solc",
    "version": "0.8.0+commit.c7dfd78e.Emscripten.clang"
  },
  "schemaVersion": "3.4.16",
  "updatedAt": "2025-03-08T19:49:57.933Z",
  "devdoc": {
    "kind": "dev",
    "methods": {},
    "version": 1
  },
  "userdoc": {
    "kind": "user",
    "methods": {},
    "version": 1
  }
}