{
  "contractName": "Migrations",
  "abi": [
    {
      "inputs": [],
      "stateMutability": "nonpayable",
      "type": "constructor"
    },
    {
      "inputs": [],
      "name": "lastCompletedMigration",
      "outputs": [
        {
          "internalType": "uint256",
          "name": "",
          "type": "uint256"
        }
      ],
      "stateMutability": "view",
      "type": "function",
      "constant": true
    },
    {
      "inputs": [],
      "name": "owner",
      "outputs": [
        {
          "internalType": "address",
          "name": "",
          "type": "address"
        }
      ],
      "stateMutability": "view",
      "type": "function",
      "constant": true
    },
    {
      "inputs": [
        {
          "internalType": "uint256",
          "name": "completed",
          "type": "uint256"
        }
      ],
      "name": "setCompleted",
      "outputs": [],
      "stateMutability": "nonpayable",
      "type": "function"
    }
  ],
  "bytecode": "0x608060405234801561001057600080fd5b50600080546001600160a01b0319163317905561017d806100326000396000f3fe608060405234801561001057600080fd5b50600436106100415760003560e01c80638da5cb5b14610046578063fbdbad3c14610064578063fdacd57614610079575b600080fd5b61004e61008e565b60405161005b91906100f3565b60405180910390f35b61006c61009d565b60405161005b919061013e565b61008c6100873660046100db565b6100a3565b005b6000546001600160a01b031681565b60015481565b6000546001600160a01b031633146100d65760405162461bcd60e51b81526004016100cd90610107565b60405180910390fd5b600155565b6000602082840312156100ec578081fd5b5035919050565b6001600160a01b0391909116815260200190565b6020808252601c908201527f4f6e6c79206f776e65722063616e2073657420636f6d706c6574656400000000604082015260600190565b9081526020019056fea26469706673582212207dfa5076bc160e91418fa8d02d500bd9fbb39599e03313bc9b25bd8346b7adb964736f6c63430008000033",
  "immutableReferences": {},
  "source": "// SPDX-License-Identifier: MIT\r\npragma solidity ^0.8.0;\r\n\r\ncontract Migrations {\r\n    address public owner;\r\n    uint public lastCompletedMigration;\r\n\r\n    constructor() {\r\n        owner = msg.sender;\r\n    }\r\n\r\n    function setCompleted(uint completed) public {\r\n        require(msg.sender == owner, \"Only owner can set completed\");\r\n        lastCompletedMigration = completed;\r\n    }\r\n}\r\n",
  "sourcePath": "D:\\Land-Registry-System\\contracts\\Migrations.sol",
  "compiler": {
    "name": "solc",
    "version": "0.8.0+commit.c7dfd78e.Emscripten.clang"
  },
  "schemaVersion": "3.4.16",
  "updatedAt": "2025-04-23T08:07:27.660Z",
  "networkType": "ethereum",
  "devdoc": {
    "kind": "dev",
    "methods": {},
    "version": 1
  },
  "userdoc": {
    "kind": "user",
    "methods": {},
    "version": 1
  }
}